:100000000C94D3040C94F0040C94F0040C94F73387
:100010000C94F0040C94F0040C94F0040C94F00490
:100020000C94F0040C94F0040C94B6190C9472190E
:100030000C94632B0C94F0040C94F0040C94F004D6
:100040000C94F0040C94F0040C94F0040C94F00460
:100050000C94F0040C948F1A0C94F0040C94F0049B
:100060000C94F0040C94F0040C94F0040C94F00440
:100070000C94F0040C94F0040C94F0040C94F00430
:100080000C94F0040C94F0040C94F0040C94F00420
:100090000C94F0040C94F0040C94F0040C94F00410
:1000A0000C94F0040C94F0040C94F0040E000F0077
:1000B00000000D000E00000005010902A1018502EB
:1000C0000901A10005091901290815002501950854
:1000D000750181020501093009311581257F9502DD
:1000E0007508810609381581257F950175088106F7
:1000F000050C0A38021581257F950175088106C017
:10010000C00660FF0961A1010962150026FF009584
:1001100020750881020963150026FF0095207508E7
:100120009102C005010906A101050719E029E7159B
:100130000025019508750181029501750881010569
:1001400007190029FF150026FF0095067508810094
:10015000050819012905150025019505750191026C
:10016000950175039101C00000000000000000002F
:10017000000000000000000000000000000000007F
:1001800000000000000000000000007E0F00D4FF0F
:10019000FFFFC70000007800000000000000002AF8
:1001A0002B280000000000000000000000000000FC
:1001B000000029000000002C1E34202122243426B7
:1001C00027252E362D3738271E1F202122232425B0
:1001D000263333362E37381F0405060708090A0B65
:1001E0000C0D0E0F101112131415161718191A1BD7
:1001F0001C1D2F3130232D350405060708090A0B75
:100200000C0D0E0F101112131415161718191A1BB6
:100210001C1D2F3130354C61626364656667686907
:100220006A6B6C6D6E6F70717273747576777879B6
:100230007A31323334353637383930524542545FAB
:100240002D3D5B5D5C233B27602C2E2F00DA028165
:10025000FFD9F1DB20A4A62EAF00A0C0D30000A1DF
:10026000C8D30000AED580A81F408D142000000127
:100270000101010101010101020202020202020266
:100280000203030303030303030404040404040438
:1002900005050505050606060606070707070708FC
:1002A000080808090909090A0A0A0B0B0B0C0C0CAF
:1002B0000D0D0D0E0E0E0F0F0F1010111111121249
:1002C00013131414151516161717181819191A1AC6
:1002D0001B1B1C1D1D1E1E1F202021222223242427
:1002E000252626272829292A2B2C2D2D2E2F303163
:1002F0003232333435363738393A3B3C3D3E3F4075
:100300004142434445464748494A4C4D4E4F50515F
:100310005354555658595A5B5D5E5F616264656619
:1003200068696B6C6D6F7072737577787A7B7D7EA0
:100330008082838587888A8C8E8F91939596989AF0
:100340009C9EA0A2A3A5A7A9ABADAFB1B3B5B7BA08
:10035000BCBEC0C2C4C6C9CBCDCFD1D4D6D8DBDDDC
:10036000DFE2E4E7E9EBEEF0F3F5F8FAFDFFFFAAD0
:100370007F554000AF00AE202000BABB004B65792E
:1003800020B10020C0C100BEBF00484F005654003D
:100390003030200020202020B1BCBD0042616C6CB8
:1003A000B100B4B500B2B300C2C3004CB6B772B16D
:1003B00000202000290014001A0008001500170072
:1003C0002B0004001600070009000A00E1001D00D0
:1003D0001B000600190005000000E200E300912167
:1003E0002C4190434C00130012000C0018001C001C
:1003F000240233000F000E000D000B0087003800B0
:10040000370036001000110000004600E600913170
:1004100028422A000F7E3A003B003C003D003E008F
:100420000D7E01000100520028004C000E7E0100EC
:10043000500051004F002A0000000100010001009F
:1004400001000100440043004200410040003F0021
:100450004500D300D2005200D1004B000100010042
:100460004F00510050004E0000000100010001004B
:1004700001000100010034022400250026002502AD
:1004800001003302210022002300300001002D0270
:100490001E001F002000300200002700370001006E
:1004A00001000100010021022F0023021E0226028A
:1004B0001F02340020022E022D0032008902380271
:1004C0002F022E008702320200000100010001000D
:1004D00001004C0020780A7E0B7E0C7E010001009A
:1004E00021782378257827780100087E22782478DF
:1004F000267828780100097E0000007C007E01003B
:100500000100010030782F782E782D782C782B7808
:10051000010001003478337832783178017E0100AF
:10052000047E027E037E057E0000007C007E0100CA
:100530000100010009025B00030100A0FA090400A8
:1005400000010301010009211101000122440007FB
:1005500005810308000109040100020300000009ED
:10056000211101000122220007058203200001075A
:100570000503032000010904020001030000000933
:100580002111010001224900070584032000011206
:100590000100020000000857590004000101020098
:1005A0000114034B0065007900620061006C006C6F
:1005B00000340034000000100359006F0077006B16
:1005C00000650065007300000004030904000000DA
:1005D00000000000002F00000000070007000012CC
:1005E0003F123F1200242A7F2A120036091E241BC4
:1005F00000182629122800000007000000001E2114
:100600004000000040211E000014083E08140008AD
:10061000083E0808000000307000000808080808BC
:100620000000003030000020100C0201001E2925BF
:10063000231E0000223F200000223129292600121B
:100640002125251A001814123F10001725252518FA
:10065000001E25252518000131090503001A25254E
:10066000251A00062929291E000000333300000046
:1006700000337300000814142222001414141414FC
:10068000002222141408000201290502003E5955D7
:100690005D3E003816111638003F2525251A001E2C
:1006A00021212112003F2121211E003F2525252146
:1006B000003F09090901001E2121291A003F0404F5
:1006C000043F0000213F210000102020201F003F98
:1006D000040C1221003F20202020003F0204023F92
:1006E000003F020C103F001E2121211E003F09097E
:1006F0000906001E2129112E003F090919260012A2
:10070000252529120001013F0101001F2020201F83
:10071000000718201807000F300C300F0021120CB2
:10072000122100030438040300312925232100008D
:100730007F4141000001020C1020000041417F0078
:100740000004020102040040404040400000010358
:10075000040000102A2A2A3C003F2422221C001CEC
:1007600022222224001C2222243F001C2A2A2A0C96
:100770000000043E0505000C5252543E003F0804A0
:1007800004380000003D0000002040403D00003FD4
:10079000080814220000013F2000003E023C023CF9
:1007A000003E0402023C001C2222221C007E142275
:1007B000221C001C2222147E003E0402020400249B
:1007C0002A2A2A120000021F2200001E2020103EAA
:1007D000000618201806000E300C300E00221408F7
:1007E0001422000E5050483E0022322A26220008D1
:1007F000087741410000007F000000414177080870
:1008000000180408100C00000000000000000000A8
:10081000000000000000000000C0F0F88C86C6E771
:10082000FFFFFFFFFFFFFEFCFCF8E080000000F090
:10083000F0F00000C0E0F070700000000000000068
:10084000000000000000000000000000000000F8B0
:10085000F8F80000000000000000000000000000A8
:100860000000000000F8F8F80000F8F8F8000000B8
:10087000000080E07078686C64C7C7C7C7C7C7E767
:100880003F1F0F3FFFFFFFFFFFFF3F0F000000FF75
:10089000FFFF1E3FFFF3E1800000F8FCFE36363616
:1008A0003EBCB8000E3EFEF080F0FE3E0E0000FFA3
:1008B000FFFF060606FEFEFC7000E6F6F63636FE84
:1008C000FEFC000000FFFFFF0000FFFFFF00000034
:1008D000003C7F6360E0C0C0C0C0C0C0C0C0FFFFBC
:1008E000C06030180F030303010000000000000384
:1008F00003030000000303030300010303030303D6
:10090000030301007070393F1F0701000000000160
:1009100003030303030303010000010303030303B1
:100920000301000000030303000003030300101091
:100930001000000000550000003E635D5D637F41D4
:100940007B77413E00001C22221C003E0A003E0A2A
:1009500000322A3C0026281E001C2A2C0000003FE2
:1009600009360000001E212100000000003F08376A
:10097000001E2121001E2121003F090600213F21E8
:1009800000222519001E2121003F0936003F211EAB
:1009900000213F21000F300F003E093E003F063F7F
:1009A000003F2020000011241FBECFEFDAE0DEBFA1
:1009B000CDBF11E0A0E0B1E0ECE2FDE602C00590A1
:1009C0000D92AE3EB107D9F726E0AEEEB1E001C020
:1009D0001D92A83BB207E1F70E948A2B0C94463681
:1009E0000C940000482F2091A2049091590459E0E2
:1009F000291302C080E0089530E0529FF001539F18
:100A0000F00D1124E65AFB4F8181681306C08081E6
:100A1000481303C085818111EECF2F5F3F4F2770B0
:100A2000E7CFE8EDF0E080818E7F80831092E200D6
:100A30001092DA001092E100A0EEB0E08C9181609B
:100A40008C9380818F77808319BCA7EDB0E08C9167
:100A50008E7F8C9380818F7E8083109241040895D5
:100A60002091E4003091E50095E6A9012091EC0089
:100A7000822F817020FF06C08091E80080FF06C0B1
:100A800080E008952091E80022FD1AC080914F0473
:100A9000882389F0853089F08091EB0085FD0FC0B7
:100AA0002091E4003091E50042175307F9F291508C
:100AB000E1F684E0089582E0089583E0089581E0FE
:100AC00008958091510487FF13C08091E80082FF50
:100AD00006C08091E8008B778093E80004C0809185
:100AE0004F048111F2CF089580914F048823D9F3E8
:100AF0008091E80080FFF8CF8091E8008E77ECCFFE
:100B0000982F9093E900242F762F50E0891731F029
:100B10007091EC002091ED005091F00021FD07C094
:100B20009F5F973071F78093E90081E008953091DD
:100B3000EB003E7F3093EB003091ED003D7F309332
:100B4000ED003091EB0031603093EB007093EC00DE
:100B50002093ED005093F0002091EE0027FDE0CFB0
:100B600080E00895B0E0A0E0E8EBF5E00C943135CA
:100B7000C8EDD0E088818F7E8883E7EDF0E080814A
:100B80008160808384E082BF81E08093410488811A
:100B90008E7F888302EE10E0F80110821092DA0056
:100BA00081EEC82ED12CF601108288818F77888340
:100BB00088818068888388818F7D888319BC1092A2
:100BC0004F041092500410924E0410924D0490EE77
:100BD000E92EF12CF70180818B7F808388818160F1
:100BE000888342E060E080E00E948005F601808119
:100BF0008E7F8083F801808181608083808188601E
:100C00008083F70180818E7F8083888180618883E3
:100C1000CDB7DEB7E8E00C944D35FC018091570468
:100C20009091580486179707A0F06115710529F473
:100C30009091E8009E779093E80090E0611571052F
:100C400051F4911108C08091E80082FF34C080E027
:100C50000895BC01F2CF80914F048823C1F1853003
:100C6000C1F18091E80083FD30C08091E80082FDF1
:100C7000EACF8091E80080FFE1CF8091F3002091DE
:100C8000F200382F6115710519F02830310558F040
:100C900091E02830310509F090E02091E8002E77AE
:100CA0002093E800CBCF81918093F10061507109CE
:100CB0002F5F3F4FE7CF80914F04882341F085306D
:100CC00041F08091E80083FFBECF81E0089582E08B
:100CD000089583E00895089580914404089587E776
:100CE00097E7909301088093000888E19AE00FB697
:100CF000F894A895809360000FBE90936000FFCF9A
:100D00002FB7F89460913D0470913E0480913F04A8
:100D1000909140042FBF0895DC01609136048091CA
:100D20003704962F891301C00895292F30E0F90167
:100D3000EE0FFF1FE25DFB4F408151814A175B07B9
:100D4000A1F487E08A9FA0018B9F500D1124445885
:100D50005E4F81E0FA0184839613E6CF2F5F3F4F09
:100D6000237033272093360408952F5F3F4F922F2F
:100D70009370D8CF1092C2031092C1038091810169
:100D8000811104C01092800110928201809188012B
:100D9000811104C010928701109289010895FC010D
:100DA000680F791F8FEF91E32191822728E030E0CF
:100DB00087FF09C0880F892721503109C9F7E61735
:100DC000F70791F70895880FF7CFFA01811101C055
:100DD000FB01099508958091A304982F9E7F61F4EB
:100DE000817082608093A3048091A604873918F0F3
:100DF00086E98093A60408958831B0F381708661F6
:100E0000F1CFAF92BF92DF92EF92FF920F931F93B9
:100E1000CF93DF93082F162FE901E42FF0E0E2597A
:100E2000FD4F611110C0E4915E2F4E2F4983E8837E
:100E30005A83DF91CF911F910F91FF90EF90DF9038
:100E4000BF90AF900895E62EF12C4491D42EE42F5C
:100E5000F0E026E0829FC00111242FEF30E0B901BD
:100E60000E941335802F90E0880F991F55E5569FFB
:100E7000D001579FB00D11248A1B9B0B982F990FFF
:100E8000890F5901AE18BF08AE9ED001AF9EB00DBC
:100E9000BE9EB00D11245B2F189F80011124012FDD
:100EA00011275901A01AB10AAE9E8001AF9E100D04
:100EB000BE9E100D11245901A81AB108AE9CC001A4
:100EC000AF9C900DBE9C900D1124892F9927281B53
:100ED000390B2E9FC0012F9F900D3E9F900D112426
:100EE000E92F62307105A1F050F46115710509F424
:100EF0009DCF6130710581F0EB2F512F97CF64307A
:100F0000710569F080F06630710509F48FCFF4CF78
:100F1000E42F4B2F592F8ACFE42F412F87CFEB2F70
:100F2000542F492F83CF4B2F5D2DE12F7FCF9091F1
:100F30007401882341F09F5F9093740110927101B6
:100F40001092700108959150F7CFE9E6F1E08285A3
:100F500091E0892782871086178208958091720117
:100F6000811114C080917401811110C080917301AE
:100F700081110CC09091DE0296959695969581E030
:100F800020916A01921380E08170089581E0FCCF86
:100F9000CF93DF93E1E9F1E083819481A581B6816C
:100FA000E90188839983AA83BB8314821382168202
:100FB0001582DF91CF91089580E0089563E070E09D
:100FC0008BE492E00E94CF0690914A02891318C0E8
:100FD000E0914B02EC30A4F488E0E802F001112427
:100FE000EF5FFE4F0680F781E02D309749F02EE647
:100FF00032E040914D026EE472E080914C0209951E
:101000000895E5E3F2E0878980933101808D809334
:1010100044010895F894E82FE295EF70F0E031A1D3
:10102000282F2F7081E090E001C0880F2A95EAF701
:10103000982F9095932391A392A1892B82A37894C2
:101040000895811522E5920780F5811530E5930713
:1010500008F0ABC0883E9105A0F4803E910558F49D
:10106000853A910548F48430910528F48130910542
:1010700011F090E080E008958D3C9105D0F39065EB
:101080000895811540E4940708F044C0811550E2AA
:10109000950708F0A3C0811561E0960750F320E0A2
:1010A000392FA901482BCA010895803872E59707A6
:1010B000A8F4803622E5920708F05AC0803432E561
:1010C000930708F03FC0803242E5940730F18F71FA
:1010D00090E0982F8827816F906A0895803C52E5B0
:1010E000950760F4282F2F71803A924508F456C076
:1010F000822F90E0982F882790620895803E72E5B5
:10110000970708F0B6CF982F882788279F71806FA0
:10111000906A08959F70906A0895282F26952695C5
:1011200050E2259F90011124837041E050E0BA0104
:1011300002C0660F771F8A95E2F7CB01822B932BB3
:101140009D680895282F26952695277070E2279F81
:1011500090011124837041E050E0BA0102C0660F93
:10116000771F8A95E2F7CB01822B932B9C68089519
:10117000282F26952695277070E2279F900111242D
:10118000837041E050E0BA0102C0660F771F8A9574
:10119000E2F7CB01822B932B9A680895822F90E07F
:1011A000982F8827846F906A08959C0195E0369562
:1011B00027959A95E1F72F7030E0322F2227482F9C
:1011C0004F7150E084FF05C084E0440F551F8A959D
:1011D000E1F7C901842B952B906908959F718CCFFD
:1011E00080959091420498239093420408958091B1
:1011F000A20490915904981301C008958F5F8770DD
:10120000FACF292F983078F5863068F590E036E0EF
:10121000239F800D911D1124682F677023E0969500
:1012200087952A95E1F7FC01EE0FFF1FE80FF91FE4
:10123000ED5FFD4F50E040E080E0219130E0062E70
:1012400002C0369527950A94E2F721703327042EC1
:1012500001C0220F0A94EAF7822B4F5F5F4F4330A1
:10126000510559F7089580E00895292F983098F591
:10127000863088F590E036E0239F800D911D112483
:10128000282F277041E001C0440F2A95EAF723E098
:10129000969587952A95E1F7FC01EE0FFF1FE80F61
:1012A000F91FED5FFD4F30E020E070E05191DF016C
:1012B0001197CB01022E02C0969587950A94E2F70A
:1012C000817081958527842385278C932F5F3F4FDD
:1012D0002330310559F70895809327020895982FF8
:1012E00092959F7011F0892F94E0282F26952695CE
:1012F00011F09E5F822F869509F09F5F892F0895D8
:10130000CF93C82F80919E018C1751F00E948006C8
:1013100060939F017093A0018093A1019093A2011B
:10132000C0939E01CF910895CF93C82F0E946F095B
:1013300091E0833009F090E0892F0E948009C093EA
:101340009603CF9108959091960321E030E0F90142
:1013500001C0EE0F8A95EAF7D90102C0AA0FBB1FA0
:101360006A95E2F7EA2B01C0220F4A95EAF7892F26
:101370008E23E81305C0292B822F0E94940908951B
:1013800020952923F9CF21E030E001C0220F8A9572
:10139000EAF720958091960382230E94940908958C
:1013A0009091DE02809589238093DE02282F27709A
:1013B00069F4891759F09091B20292FF07C086959F
:1013C000869586950E94C3091092DE02089521E059
:1013D00030E001C0220F8A95EAF780919603822BB4
:1013E0000E9494090895B0E0A0E0E9EFF9E00C94C0
:1013F00031358C01EB01E091A301E11101C0E4E082
:10140000E150FF0B81E090E06C010E2E02C0CC0C8D
:10141000DD1C0A94E2F7D801ED90FC90C701B601FB
:101420000E9478359B01CB010E2E02C0880F991FB8
:101430000A94E2F7E81AF90AD8011196FC92EE92A2
:101440001296ED90FC90C701B6010E947835CB0151
:1014500002C0880F991FEA95E2F7E81AF90AF80125
:10146000F382E2826138FFEF7F07F4F060387105A4
:10147000ECF46D8321388FEF3807D4F02038310534
:10148000CCF4822F81958C83442319F061956D8370
:101490002C838091A401882379F0813079F0CDB735
:1014A000DEB7E8E00C944D3561E8E3CF6FE7E1CFBC
:1014B00021E8E7CF2FE7E5CF1D82F1CF1C82EFCFE8
:1014C000FC01DB012281338191E821388FEF38075D
:1014D0002CF0922F203831050CF09FE712969C9348
:1014E00012972081318121388FEF3807A4F02038FE
:1014F00031059CF413962C931397442339F091955E
:1015000012969C931297219513962C931182108218
:1015100013821282089521E8EDCF2FE7EBCF8F7071
:101520008A3010F4805D0895895A0895382F20E29A
:1015300087FF02C031952DE24AE0832F642F0E947D
:101540006A35905D9093FB0181110BC02093FA01E5
:1015500020E22093F90120E22093F80188EF91E046
:101560000895642F0E946A35905D9093FA01832F4D
:1015700064E60E946A35882361F3805D8093F901F7
:10158000EBCF9C01860F971F37FD07C077FD04C086
:1015900097FF02C08FEF9FE7089577FFFDCF97FD7C
:1015A000FBCF80E090E80895E2E7F1E083E0DF011F
:1015B0001D928A95E9F7EEE6F1E084E0DF011D92E5
:1015C0008A95E9F7089520916B0130916C012817F5
:1015D000390731F090936C0180936B010E94D40A1B
:1015E000089590916901981721F0809369010E94F4
:1015F000D40A0895CF939091D9028091D202981382
:1016000023C08091DA02882321F09091D3028913BC
:101610001BC08091DB02882321F09091D4028913B2
:1016200013C08091DD02882321F09091D6028913A6
:101630000BC09091DC02992329F081E02091D50222
:10164000291303C080E001C081E0C82FC17080FF72
:101650000FC0E0913A04F0913B04309749F082E0EA
:101660008093D8020480F581E02D88ED92E0099501
:101670009091D90286E0E8EDF2E0DF01282F1D927B
:101680002A95E9F79093D902A1EDB2E001900D926D
:101690008A95E1F781E0C11103C0911101C080E09A
:1016A0008170CF9108952FE2280F283078F481E0DF
:1016B00090E001C0880F2A95EAF72091D9026623AD
:1016C00031F0822B8093D9020E94FA0A0895809506
:1016D0008223F8CFCF93DF93282F81E02A3019F0AF
:1016E0002D3031F480E00E94FE0BDF91CF91089500
:1016F0008091B4069091B50636E0FC01AEEAB6E002
:1017000001900D923A95E1F730EE320F343A08F439
:1017100058C026E0FC0111922A95E9F7C091B40661
:10172000D091B50646E050E0BE018EEA96E00E94F8
:10173000D8359E012E5A3440892B41F1C90145E02C
:10174000969587954A95E1F741E050E0BA0102C0CD
:10175000660F771F8A95E2F7CB016091AC04709118
:10176000AD04862B972BB9016B5F7F4FE5E0769533
:101770006795EA95E1F702C0440F551F6A95E2F7B5
:10178000842B952B9093AD048093AC042A5F3F4F3C
:101790004091AB04642F70E0C9010E941335481BCF
:1017A000463010F4240F311D211572E0370710F078
:1017B00030E020E022553B4F3093B5062093B4062D
:1017C00094CF2052330B46E0429FB001439F700DEF
:1017D000112463537A4F46E050E00E94CF359ECFEC
:1017E000CF93DF93EC01FE018491811103C0DF915F
:1017F000CF9108950E946A0B2196F5CFCF93382F91
:10180000E091B406F091B506EE5AF4402091AB0495
:10181000622F70E0CF010E941335281B822F3323E3
:1018200061F066E00E945E35C82FC15010F4CF9180
:10183000089580E20E946A0BF8CF9F01280F311DA6
:101840002115324018F080E0F0E0E0E08E0F9F2F8D
:10185000911D82559B4F9093B5068093B406E7CFB8
:10186000809142049091C303892B8093F001909161
:101870002602992391F0892B8093F00120E082EFDA
:1018800091E0FC013191CF0131112F5FF1E0883FF0
:101890009F07B9F721111092260248E050E06EE14F
:1018A00072E080EF91E00E94D835892BA9F088E0A2
:1018B000E0EFF1E0AEE1B2E001900D928A95E1F740
:1018C000E0913A04F0913B04309731F00280F381CB
:1018D000E02D80EF91E009950895E2EFF1E086E0D8
:1018E000DF011D928A95E9F71092C3030E94300C24
:1018F0000895AAE2B0E0EFE7FCE00C94363581E50C
:1019000094E02091F100DC012D93CD01B4E0893504
:101910009B07B9F780915204833009F472C0B8F480
:10192000813009F449C0823009F4B5C08091E800E3
:1019300083FF8DC280915104909152049A3008F037
:1019400086C2E92FF0E0E85BF94C0C948C358A30C4
:1019500009F490C08B3009F471C0893039F7809157
:101960005104813219F780915504909156040097E3
:1019700011F00297D9F68091E800877F8093E80004
:101980008091E80082FF38C09091F3008091F200CE
:10199000029731F48091F100813011F0863021F40A
:1019A0008091F100809344048091E8008B778093CC
:1019B000E8000E946105BACF80915104813A09F094
:1019C000B5CF8091E800877F8093E800809155042F
:1019D00090915604892B61F468E085E494E070E00E
:1019E0000E940D068091E8008B778093E8009ECFDF
:1019F00060E090E080E0F3CF80914F048111C0CF90
:101A000095CF80915104813A09F090CF809155048F
:101A100090915604892B09F089CF8091E800877F47
:101A20008093E8008091E80080FFFCCF80918B01DB
:101A30008093F1008091E8008E77B9CF80915104B6
:101A4000813209F073CF8091550490915604892B0F
:101A500009F06CCF8091E800877F8093E8000E94B6
:101A600061058091530480938B01109242040E947F
:101A70006D0C5CCF80915104813209F057CF809179
:101A8000E800877F8093E8000E94610580915404FC
:101A9000809343044BCF80915104813A09F046CFA3
:101AA0008091E800877F8093E8008091E80080FFC4
:101AB000FCCF80914304BCCF803899F0823809F084
:101AC000C6C1809155048F70873008F0C0C18093E3
:101AD000E9008091EB0085FB882780F91092E900EE
:101AE00006C080914D0490914E04911182609091B6
:101AF000E800977F9093E8008093F1001092F10046
:101B00008091E8008E779FC1882309F48DC18230CF
:101B100009F09DC180915304811190C180915504B9
:101B20008F702FEF280F263008F091C18093E900C5
:101B30002091EB0020FF82C1933031F48091EB00C3
:101B400080628093EB007AC19091EB00906190935A
:101B5000EB0021E030E001C0220F8A95EAF72093E4
:101B6000EA001092EA008091EB008860EACF8111D0
:101B70006EC1109153041F778091E3008078812B10
:101B80008093E3008091E800877F8093E8000E94C3
:101B900061058091E80080FFFCCF8091E3008068C0
:101BA0008093E30082E0111183E080934F044FC1E2
:101BB0008058823008F04BC1209153043091540476
:101BC0002C3DE3E03E07A1F583E08A838AE2898326
:101BD0004FB7F894DE01139620E03EE051E2E32F88
:101BE000F0E050935700E49120FF03C0E295EF70BE
:101BF0003F5FEF708E2F90E0EA30C0F0C7968D9374
:101C00009D932F5F243159F74FBF8091E800877F64
:101C10008093E8006AE270E0CE0101960E940D0612
:101C20008091E8008B778093E80011C1C096E7CFE0
:101C30008091550490915604432F55274330510508
:101C400009F44AC078F54130510509F47AC08BE5B2
:101C500090E0E4E3F5E04230510509F0F8C020914E
:101C6000E800277F2093E800209157043091580422
:101C70008217930708F49C0140E02115310509F013
:101C800065C0411163C08091E80082FDC9CF809199
:101C90004F04882329F2853019F28091E80083FFF0
:101CA000F2CFBECF4132510509F43CC0423251055A
:101CB00009F0CDC08330910508F0C9C0FC01EE0FDA
:101CC000FF1FEE51FE4F0190F081E02D81529E4F9B
:101CD000DC018C9190E01AC0332721303105D1F01E
:101CE0002115310561F02230310509F0B0C0E1EA7B
:101CF000F5E0E4918E2F90E0E1EAF5E007C0E9EC31
:101D0000F5E0E4918E2F90E0E9ECF5E0009709F41E
:101D10009EC0A5CFE7EBF5E0E4918E2F90E0E7EBD6
:101D2000F5E0F4CF8330910508F091C0880F991F3A
:101D3000FC01E851FE4F0190F081E02D89E090E038
:101D40008ECF82E190E0EFE8F5E089CF80914F04FB
:101D5000882309F465CF853009F462CF8091E800CB
:101D600083FD5ECF8091E80082FD8DCF8091E800F9
:101D700080FF83CF9091F3008091F200211531050F
:101D800019F08830910550F041E0089709F040E0E3
:101D90008091E8008E778093E8006FCF4491409364
:101DA000F1003196215031090196E8CF803809F0D1
:101DB0004EC08091E800877F8093E80080915004B6
:101DC0008093F1009DCE811142C0109153041230D6
:101DD000F0F58091E800877F8093E800109350042D
:101DE0000E946105112311F084E005C08091E30099
:101DF00087FDFACF81E080934F0442E061EC81E0FF
:101E00000E94800542E261EC84E00E94800542E28B
:101E100061EC82E00E94800542E260EC83E00E9477
:101E2000800580914F0413C080915304813079F470
:101E300081E0933009F080E080934E041092E90035
:101E40008091E800877F8093E8000E94610580917F
:101E5000E80083FF0AC08091E800877F8093E80054
:101E60008091EB0080628093EB00AA96E3E00C94F3
:101E70005235882321F00E94F0080E94300C08950A
:101E8000882339F090914204982B909342040E9449
:101E9000300C0895882349F19CEF980F913A80F413
:101EA000E2EFF1E028EF31E09191891303C0DF0107
:101EB00011971C922E173F07B9F70E94300C089516
:101EC00090E2980F983050F4877091E001C0990F1C
:101ED0008A95EAF7892F0E94F008EFCF93E3980FD5
:101EE000933118F460E00E94530B08950F931F93F1
:101EF000CF93C82F882341F18CEF8C0F813AB0F536
:101F000002EF11E088EF91E0F8012191C21701F191
:101F10008E179F07D1F7EFEF80E0D8019D918D01DB
:101F2000C91781F0EF3F19F4911101C0E82F8F5FBD
:101F3000863099F7EF3F31F00E2E000CFF0BE05189
:101F4000FE4FC2830E94300CCF911F910F910895D4
:101F5000E2EFF1E02191C21303C0DF0111971C925F
:101F60008E179F07B9F70E94300CD5CF80E28C0FF7
:101F7000883068F4C77021E030E001C0220FCA95B4
:101F8000EAF780914204822B80934204DBCF83E303
:101F90008C0F8331C8F661E08C2F0E94530BD4CF95
:101FA0000F931F93CF93DF93EC01FC01019000206E
:101FB000E9F78F0101501109C017D10728F0DF910F
:101FC000CF911F910F91089589910E946A0BF4CFD0
:101FD0000F931F93CF93DF938B01EA0190914F04EE
:101FE000943061F58093E9008FEF9091E800815083
:101FF00095FD06C095ED9A95F1F700008111F5CF9A
:102000008091E80085FF1AC00E943005811111C03F
:102010008091E80085FD06C08091E8008E7780936E
:10202000E800F2CFF80181918F018093F1002197B0
:1020300079F78091E8008E778093E800DF91CF9167
:102040001F910F91089546E050E0BC0184E00E948A
:10205000E80F0895CF93DF93EC0148E050E0BC0116
:1020600081E00E94E80F88E0FE01A5E4B4E0019061
:102070000D928A95E1F7DF91CF91089560918D01DE
:102080008091A30480FF20C080918C0143E0849F55
:10209000C00111248E519D4F539A2BB1277F3BB124
:1020A00038605FB7F894FC01649FE00DF11D1124C6
:1020B000BF0168177907D1F45FBF8FE594E00197FE
:1020C000F1F700C00000089580918E0190918F017A
:1020D00023E0829FF0011124EE51FD4F8917A0F6F5
:1020E0001182108212828F5F3396F8CFFC014191EA
:1020F000CF01E8E03BB9000000C047FF2BB9440F17
:10210000000000C000C000C02BB900C0EA9591F7E4
:10211000D0CFE3EAF4E080818E7F8083EFEDF2E0C0
:102120008281816082830E943E100895B0E0A0E029
:10213000ECE9F0E10C942F357C015B016A018091A0
:10214000A20201E010E08A3010F40AE010E0C1E0E1
:10215000D0E0B501C701F6010995811104C02196AF
:102160000C171D072CF4CDB7DEB7EAE00C944B3505
:10217000CC9F9001CD9F300D300D112490E080E078
:1021800045E34A95F1F70000019682179307C1F7DE
:10219000E0CF80913402811119C088EC90E0209149
:1021A000E30027FD10C0EFE3FCE93197F1F700C031
:1021B00000000197A1F782E0809334020E9411058C
:1021C00010924F0403C081E08093340281E090912B
:1021D0003402913011F080E0089508950E94C910F2
:1021E000882359F0E0913A04F0913B04309729F0AC
:1021F0000190F081E02D0995089580E008950F93F6
:102200001F930E94C910882329F00E9480061F9105
:102210000F9108950E9480060091A3021091A402DC
:102220002091A5023091A602600F711F821F931F9B
:10223000EECF54985C9A879A8F9885E08A95F1F74B
:10224000000089B187988F9A90EA9A95F1F790E00B
:1022500024E0959587952A95E1F780959095817072
:102260000895CF93DF9380919101CEE18111CDE16B
:1022700080919201D0E0882329F080919301DEE1E2
:102280008111DDE10E94191181110FC08D2F809302
:102290008C01C0938D01CD0F10928E01C0938F01E0
:1022A000C0939001DF91CF91089580E0F0CF8091AD
:1022B0009101F90180830E94311108951F93CF93FA
:1022C000DF93182FEB010E94760F8FE99FE00197B3
:1022D000F1F700C000002197C1F7812F0E944A0F3B
:1022E000DF91CF911F910895109242040E946D0CCE
:1022F0002FEF84E39CE0215080409040E1F700C044
:10230000000088E19AE00FB6F894A89580936000E9
:102310000FBE90936000FFCFCF93DF93C9E6D2E06A
:1023200060E0CE010E9412362196C11584E0D807E4
:10233000B9F7DF91CF9108951F93CF93DF93122FB9
:102340008630E0F46830D0F44630C0F4C42FD0E0DA
:10235000CC0FDD1F9CE0699FC00DD11D112490E6BC
:10236000899FC00DD11D1124632FCE0189960E9433
:102370001236612FCE018A960E941236DF91CF91DC
:102380001F910895B0E0A0E0E8ECF1E10C94313544
:1023900094EBE92E93E0F92ED12C8701C12C1CC0BF
:1023A0004C2F83E021E030E08D1540F0FE01EE0F70
:1023B000FF1FE00FF11F859194919C016C2D8D2DD5
:1023C0000E949C112196C630D10551F7C394045F39
:1023D0001F4F88E0C81619F0D0E0C0E0E1CFD394D9
:1023E00080E6E80EF11C86E0D812D7CFCDB7DEB775
:1023F000E8E00C944D3588E290E00E941236089592
:10240000CF93C82F6FEF811166E285E290E00E94C2
:1024100012366FEFC11164E086E290E00E9412363E
:102420006FEFC11168E287E290E00E941236CF910F
:10243000089580E00E94001260E070E0CB010E94ED
:10244000FB110E94C2110E948C1181E00E940012B7
:1024500008950F931F93CF93DF93863030F5683044
:1024600020F5463010F5C42FD0E0CC0FDD1F2CE056
:10247000629FC00DD11D112430E6839FC00DD11D78
:102480001124CE0189960E94EE35082F10E0102FFE
:102490000027CE018A960E94EE359801282BC901AB
:1024A000DF91CF911F910F91089590E080E0F8CFD8
:1024B000462F783040F4663030F4863020F4672FB1
:1024C0000E942912089590E080E00895CF92DF9253
:1024D000FF920F931F93CF93DF936C0100919603AC
:1024E00080912702082BC5E0D0E010E0FC2EC80147
:1024F0000C2E02C0959587950A94E2F780FD0CC0DA
:102500002197A0F7F12C8F2DDF91CF911F910F9183
:10251000FF90DF90CF900895B6018C2F0E94581243
:102520000E942108019761F3EECFCF93DF93EC0176
:102530000E946612BE010E9458120E942108DF917B
:10254000CF910895FC0184818823F9F087819085DB
:10255000009791F00E94210892959F709630B9F0F3
:1025600080F4925F9F70923080F4803F19F058F4AD
:10257000883E58F481E00895808191810E949512EF
:10258000EBCF9A5FEFCF843FA9F380E00895883EB8
:1025900088F3813FD1F7EECFA6E0B0E0E2EDF2E1C3
:1025A0000C9436359C01FC01878190850097E1F4FD
:1025B00086E0DE01119601900D928A95E1F7F9010E
:1025C000258189819A81222399F0662389F00E94CE
:1025D0006612182F682F89819A810E9435096981B6
:1025E0007A81812F0E9458122696E3E00C9452358E
:1025F0000E940109182FF3CF88E290E00E94EE3587
:10260000682F70E090E080E0089585E290E00E94FD
:10261000EE35863289F486E290E00E94EE35843011
:1026200059F487E290E00E94EE3591E0883209F09B
:1026300090E0892F8170089580E0FCCFB0E0A0E0A9
:10264000E4E2F3E10C9431356C017B0164E670E067
:1026500088E70E9471328C01E601EC0CFD1C17FD2D
:102660000BC0FE01849164E670E00E94DD328C01B3
:102670002196CE15DF0599F70E94533381E00115AD
:10268000110509F080E0CDB7DEB7E8E00C944D35D8
:102690008091BD039091C003911103C091E08927FF
:1026A0000895882369F062E070E085E793E00E9476
:1026B0001E13811103C08091BD0308951092BD03C4
:1026C0008091BD03EBCFCF93C091BD038091C00338
:1026D0008823D1F00E948006605A75418F4F9F4F2A
:1026E0006093B9037093BA038093BB039093BC03C8
:1026F000C11108C062E070E083E793E00E941E13FE
:10270000811105C0C091BD038C2FCF91089581E048
:102710008093BD03F7CFB0E0A0E0E1E9F3E10C94D2
:102720002D3549015A016B017C010E94EB068401A1
:10273000A4016A2D7B2D88E090E00E94243694014C
:102740004A2D5B2DB601C70100E20E94B435622F0D
:1027500084E290E00E941236CDB7DEB7ECE00C9434
:102760004935A3E0B0E0E7EBF3E10C943035F82E07
:10277000E62E042FD22E8091A30480FF55C09091A5
:10278000A4049F1108C09091A504961304C09091D1
:10279000A604941729F09091E10292609093E102CF
:1027A000E82FE695AE2FB0E0A553BE4F9C919093D5
:1027B000DF028E7F823009F041C0402F073908F0D8
:1027C00046E99E012F5F3F4F6E2D8F2D0E9401071E
:1027D0008091A30480FF11C02B8139814A818091AF
:1027E0008E0190918F0153E0859FF0011124EE51ED
:1027F000FD4F8917E8F00E943E10F092A404E09289
:10280000A5040093A604DD2079F02091A304609133
:10281000A7047091A8043F2D4E2D502F8091A9043C
:102820009091AA040E948B132396E9E00C944C35F6
:102830004183308322838F5F3396DBCF9230E9F67A
:10284000E2506E2F6170B62EE695F0E0E259FC4F33
:102850001491C12C60919001C61668F6C19EC0010A
:10286000112470E00E9413358F2DB11017C0860F10
:1028700020918E01622F6C0D7727771F9B01220F0D
:10288000331F260F371F2E513D4F402F073908F0B9
:1028900046E96E2D0E940107C394DCCF861BE8CF6A
:1028A000E3EAF4E043812FE0421B08F440E021E03A
:1028B000628181810E94B1130895E3EAF4E04381CB
:1028C0002FE0420F08F44FEF21E0628181810E94E6
:1028D000B1130895E3EAF4E0628121E1621B08F498
:1028E00060E021E0438181810E94B1130895E3EA11
:1028F000F4E0628121E1620F08F46FEF21E043818F
:1029000081810E94B1130895E3EAF4E0818121E01E
:102910004381628181510E94B1130895E3EAF4E09A
:10292000818121E0438162818F5E0E94B11308950D
:102930008091A704882319F081508093A7042091E7
:10294000A3043091A4044091A5045091A604609181
:10295000A7047091A8048091A9049091AA040E94F0
:102960008B1308958091A704833018F48F5F8093B0
:10297000A7042091A3043091A4044091A504509190
:10298000A6046091A7047091A8048091A904909175
:10299000AA040E948B1308959091A30490FF28C06D
:1029A0009170811126C092609093A3048091E102FE
:1029B00081608093E102662391F02091A30430911D
:1029C000A4044091A5045091A6046091A7047091BD
:1029D000A8048091A9049091AA040E948B1320E07E
:1029E0004091A6046091A5048091A4040E94B113B3
:1029F00008958C3010F09661D7CF880F982BD4CFE4
:102A00008091A3048695815009F48BE061E00E94D7
:102A1000CC1408958091A30486958F5F8C3008F0C4
:102A200081E061E00E94CC1408958091A30480FFAE
:102A300008C0869582588F77893018F40E940A154D
:102A4000089561E082E00E94CC140895E3EAF4E086
:102A500083E0808311828FEF828386E983831482EF
:102A6000AFEDB2E012968C911297836012968C9320
:102A7000758123E030E04FEF56E960E08681978171
:102A80000E948B1308959091B20292FB222720F9A5
:102A9000281779F080FB92F99093B2026091B1020D
:102AA0007091B20284E090E00E94303682E00E9491
:102AB000D009089590E080E00E94FC35863E9E4F4C
:102AC00019F40E940513089580E00895B0E0A0E095
:102AD000ECE6F5E10C9432357901C82F880FDD0B57
:102AE00041155105A9F0FE0193E0EE0FFF1F9A95E5
:102AF000E1F7EF5FFE4F818192818B5C9D4F2081DA
:102B000030E04217530708F49A01A9010E94E53505
:102B1000CE010E949D34D82E8823D1F001151105D5
:102B2000B9F083E0CC0FDD1F8A95E1F7FE01EF5F7E
:102B3000FE4F438150E00417150708F4A801CF5F4A
:102B4000DE4F6C817D816B5C7D4FC7010E94E53556
:102B50008D2DCDB7DEB7E7E00C944E35A5E0B0E0A3
:102B6000E4EBF5E10C942F358D83E62E5A01F22E1D
:102B700068018091A2028A3028F080E02596EAE080
:102B80000C944B358D818930C4F31A8219828A8363
:102B90006B832C8363E070E0CE0102960E94CF0627
:102BA0008983E0923101F092440110E000E030E0CE
:102BB00020E044E050E0BE016F5F7F4F85E00E945F
:102BC00066158823D1F24E2D50E030E020E0B501AB
:102BD00086E00E946615882381F230E020E041E023
:102BE00050E0BE016B5F7F4F87E00E94661588232F
:102BF00021F20F2D10E0960150E040E070E060E01F
:102C000088E00E946615BACFA4E0B0E0EAE0F6E101
:102C10000C9435354091960250919702609198023C
:102C2000709199022FB7F89480913D0490913E04E1
:102C3000A0913F04B09140042FBF841B950BA60BBD
:102C4000B70B11E084369105A105B10518F10E947A
:102C5000FF106E5F7F4F8F4F9F4F69837A838B8307
:102C60009C8310E000E030E020E044E050E0BE0152
:102C70006F5F7F4F82E00E946615182F882351F006
:102C80000E94800660939602709397028093980248
:102C900090939902812F2496E4E00C945135A5E09D
:102CA000B0E0E5E5F6E10C9433357B0101E010E09E
:102CB0009E012B5F3F4F50E040E070E060E080E01D
:102CC0000E946615182F882309F456C0409192027D
:102CD0005091930260919402709195022FB7F894ED
:102CE00080913D0490913E04A0913F04B091400436
:102CF0002FBF841B950BA60BB70B84369105A1053E
:102D0000B10548F464E070E086E392E00E94CF06EB
:102D10009D81891789F104E010E09E012F5F3F4FEC
:102D200050E040E070E060E081E00E946615082F0E
:102D300064E070E086E392E00E94CF0611E09D819E
:102D4000981310E0102331F10E94800660939202E4
:102D500070939302809394029093950289819A8153
:102D6000AB81BC8180938E0290938F02A0939002DE
:102D7000B093910211E00EC080913602909137021B
:102D8000A0913802B091390289839A83AB83BC83C6
:102D90001111E4CF80918E0290918F02A091900248
:102DA000B0919102F70180839183A283B383812F35
:102DB0002596E6E00C944F358F929F92AF92BF928A
:102DC000EF92FF920F931F93CF937B01942FB90142
:102DD000A801F70180809180A280B380EFB7F894BA
:102DE00000913D0410913E0420913F043091400435
:102DF000EFBF081919092A093B09043611052105F5
:102E0000310518F4C1E0992381F010E000E030E0D2
:102E100020E00E946615C82F882339F00E948006A2
:102E2000F70160837183828393838C2FCF911F91ED
:102E30000F91FF90EF90BF90AF909F908F9008956B
:102E4000A1E0B0E0E6E2F7E10C9435358091BD03F6
:102E500089832091490290E041E02817190609F47E
:102E600040E001E010E09E012F5F3F4F6EE972E00D
:102E700084E00E94DC162196E4E00C945135ABE02E
:102E8000B0E0E5E4F7E10C94353588E0E3EAF4E0FE
:102E9000DE01119601900D928A95E1F78091DF0293
:102EA0009091E002A091E10289879A87AB8741E087
:102EB0008B85811101C040E00BE010E09E012F5F87
:102EC0003F4F6AE972E083E00E94DC1681111092A4
:102ED000E1022B96E4E00C945135A8E0B0E0E3E782
:102EE000F7E10C94373566EE7EEF90E080E00E94CB
:102EF000303660E082E090E00E94123660E083E0CD
:102F000090E00E9412361092270260E074E184E0A3
:102F100090E00E94303660E086E090E00E94123639
:102F20006FEF87E090E00E94123640E050E0BA0177
:102F300088E090E00E94243660E084E290E00E9405
:102F4000123660E087E190E00E94123660E08CE08B
:102F500090E00E94123660E08DE090E00E94123610
:102F600019821A821B821C821D821E821F82188671
:102F700048E050E068E170E0CE0101960E94023620
:102F800040E050E0BA0180E290E00E94243680E008
:102F90000E9400120E94191240E050E0BA018FE036
:102FA00090E00E94243640E050E0BA0183E190E0D6
:102FB0000E9424362896E2E00C94533528E030E055
:102FC00043E060E086E30E9499310895CF93DF9358
:102FD000D82FC62F0E94DE178D2F80680E941132D5
:102FE0008C2F0E9411328AEB8A95F1F700C00E9463
:102FF000413283E492E00197F1F700C00000DF91D5
:10300000CF910895682F893708F068E760939C0195
:1030100091E090939D0190919101992339F0615035
:10302000811101C064E08FE00E94E6170895FB0162
:1030300080810E940218089590919C01911101C015
:1030400095E0282F880F330BA901490F511DCA01A4
:103050001816190614F081E090E00E9402180895F5
:10306000ACE0B0E0E6E3F8E10C9431354F835887EB
:1030700069877A878B879C8780919101882309F4DF
:1030800046C08091FD01811107C060E080E50E948B
:10309000E61781E08093FD010E94DE1780E50E9423
:1030A00011328AEB8A95F1F700C00E9429320E9402
:1030B00029320E9429327C010E94293220E0E22A32
:1030C000F82A0E9429328C010E94293220E0022B2A
:1030D000182B0E94413285E08A95F1F70000F894A0
:1030E000B70180919401909195010E94C10A90933B
:1030F000950180939401B801809196019091970178
:103100000E94C10A909397018093960178940E943F
:10311000C910882309F469C00E9480060091FE014D
:103120001091FF0120910002309101026B017C019E
:10313000C01AD10AE20AF30A970186010830110584
:103140002105310508F451C06093FE017093FF0121
:10315000809300029093010200919F011091A001C1
:103160002091A1013091A201601B710B820B930B86
:10317000623371058105910580F4109295011092DA
:103180009401109297011092960110929901109259
:10319000980110929B0110929A0110919E010E9439
:1031A0001911482FBE01695F7F4F84E991E0112317
:1031B00089F10E94F30900919E01109191010E94F2
:1031C000191141E04827BE01695F7F4F88E991E00E
:1031D000011719F10E94F30986E0FE013796A9EA6A
:1031E000B1E001900D928A95E1F786E0FE013796F5
:1031F000DE01119601900D928A95E1F729813A81BD
:103200004B815C816D817E8180E090E02C96E8E0CE
:103210000C944D350E94600ACECF0E94600ADCCF2C
:10322000CF93C82F0E94DE178C2F0E9411328FE798
:1032300092E00197F1F700C000000E942932C82FE8
:1032400095E09A95F1F700000E94413285E68A9553
:10325000F1F700001092FD018C2FCF910895CF93CC
:10326000DF930E949131269A0E94DE176AE58AE375
:103270000E94E6172FEF80E792E0215080409040B7
:10328000E1F700C0000082E00E94101983E00E9474
:10329000101984E00E94101985E00E94101986E040
:1032A0000E94101960E080E10E94E61780E00E9411
:1032B0001019D82F81E00E941019C82F0E944132A6
:1032C000D23419F481E0C13009F080E0817080933C
:1032D0009101882321F064E08FE00E94E617DF91DE
:1032E000CF9108951F920F920FB60F9211242F9332
:1032F0003F934F935F936F937F938F939F93AF937E
:10330000BF93CF93DF93EF93FF93D091E900DF70EA
:103310008091EC00C82FC17080FDC0E81092E900D8
:103320008091F000877F8093F00078940E94790C60
:103330001092E9008091F00088608093F000CD2B1E
:10334000CF70C093E900FF91EF91DF91CF91BF91D2
:10335000AF919F918F917F916F915F914F913F912D
:103360002F910F900FBE0F901F9018951F920F92E4
:103370000FB60F9211242F933F934F935F936F9348
:103380007F938F939F93AF93BF93EF93FF9380911E
:10339000E10082FF09C08091E20082FF05C08091B8
:1033A000E1008B7F8093E1008091DA0080FF24C0F0
:1033B0008091D80080FF20C08091DA008E7F8093BA
:1033C000DA008091D90080FF9DC080E189BD82E153
:1033D00089BD09B400FEFDCF81E080934F04809148
:1033E0004104811109C00E9411050E94B20580911B
:1033F000E20084608093E2008091E10080FF17C0CA
:103400008091E20080FF13C08091E2008E7F809364
:10341000E2008091E20080618093E2008091D80018
:1034200080628093D80019BC85E080934F0480911E
:10343000E10084FF2BC08091E20084FF27C080E17F
:1034400089BD82E189BD89B5982F917080FFFBCF3E
:103450008091D8008F7D8093D8008091E1008F7E8D
:103460008093E1008091E2008F7E8093E200809162
:10347000E20081608093E20080915004882309F487
:1034800047C084E080934F0480914F048091E10015
:1034900083FF27C08091E20083FF23C08091E10079
:1034A000877F8093E10082E080934F041092500464
:1034B0008091E1008E7F8093E1008091E2008E7F19
:1034C0008093E2008091E20080618093E20042E01C
:1034D00060E080E00E9480058091F0008860809329
:1034E000F000FF91EF91BF91AF919F918F917F91EC
:1034F0006F915F914F913F912F910F900FBE0F9061
:103500001F90189519BC10924F041092410474CF6B
:103510008091E30087FD93E090934F04B5CF7894BA
:103520001F921FB61F9211248F939F93AF93BF9347
:1035300080913D0490913E04A0913F04B0914004DD
:103540000196A11DB11D80933D0490933E04A0936C
:103550003F04B0934004BF91AF919F918F911F9012
:103560001FBE1F9018959C014FB7F89480913D04A1
:1035700090913E04A0913F04B09140044FBF821B44
:10358000930B08952FB7F89480913D0490913E04D9
:10359000A0913F04B09140042FBF08952F923F9215
:1035A0005F926F927F928F929F92AF92BF92CF92D3
:1035B000DF92EF92FF920F931F93CF93DF9380914F
:1035C000C003882309F4FEC08091BE039091BF031D
:1035D0000E94B31AC29708F4D5C00E94C21A9093F1
:1035E000BF038093BE038EEA94E09093B506809368
:1035F000B4060E94C910882309F401C18DE793E045
:103600000E94F00B88EB0E946A0B8091A8010E9437
:103610008F0A0E946A0B89EB0E946A0B8091A701B6
:103620000E948F0A0E946A0B8AE793E00E94F00BC7
:103630008091A5019091A60154E0969587955A95A1
:10364000E1F70E948F0A0E946A0B8091A5010E94F7
:103650008F0A0E946A0B87E793E00E94F00B8FEAC3
:1036600091E00E94D00F8CE993E00E94F00B8091D2
:10367000AB010E94960A0E94D00F8091AC010E947B
:10368000960A0E94D00F8091AE010E94960A0E9475
:10369000D00F8091AD010E94960A0E94D00F84E95C
:1036A00093E00E94F00B80919C01811101C085E0A4
:1036B0000E94960A01960E94D00F80E993E00E9432
:1036C000F00B8091A401882331F0813009F48CC083
:1036D00087E893E002C08DE893E00E94F00B8091B0
:1036E0009E01882309F483C085EA93E00E94F00BD1
:1036F00083E893E00E94F00B8091A301811101C047
:1037000084E0805D0E946A0B8BEA93E00E94F00BDC
:10371000C1E0D0E080919603882309F46BC090E06B
:103720000C2E02C0959587950A94E2F780FF62C03F
:103730008C2F0E948F0A0E946A0B2196C830D105F7
:1037400049F780E20E946A0B88EA93E00E94F00B3E
:1037500080916901882309F44FC085EA93E00E94B3
:10376000F00B80916B0190916C016AE070E00E9417
:103770001335862F0E94960A01960E94D00F80E38F
:103780000E946A0B8091AC049091AD04892B09F0E2
:103790004CC08091BD038823A9F00E94800600914F
:1037A000B9031091BA032091BB033091BC03601B95
:1037B000710B820B930B6F3F7F4F8F4F9F4710F41E
:1037C0000E944813DF91CF911F910F91FF90EF90CE
:1037D000DF90CF90BF90AF909F908F907F906F9031
:1037E0005F903F902F9008958AE893E076CF82EA29
:1037F00093E07CCF80EB9FCF82EA93E0B0CFC0E92B
:10380000D0EFDC0F81EB93E00E94F00B11E01D0F75
:103810008D2F0E946A0BD12F1C13F8CF80E00E94DD
:10382000FE0BC05FC03C61F7ADCF8091C003882321
:1038300009F4AFCF8091B8038111ABCF0E9463131D
:103840002091AC043091AD042115310509F4A1CFCC
:1038500080E041E050E0082F10E01A01082E02C07D
:10386000220C331C0A94E2F7B10162237323672B05
:1038700011F48F5FF0CF9091B70390FF95C0880F40
:10388000880F880F8093770110927A01895F809367
:10389000780183E080937B0124E630E047E050E04C
:1038A00065E771E088E70E940B33892B09F071CF3F
:1038B000A80125E0440F551F2A95E1F78091B70331
:1038C00080FF84C0E7E9F3E080E2DF011D928A9582
:1038D000E9F7ABEDB1E007ED11E08FEDC82E81E027
:1038E000D82E97E0592E772473948D91E801299171
:1038F0008E01240F352F311D22553B4FE82FF0E06C
:10390000E956FC4F90E080E0652C681A872C082E61
:1039100001C0880C0A94EAF77901A12CE701B9905B
:103920007E01B820662D6A196770962E062E000C4F
:10393000770BDB2D01C0DD0F9A94EAF77195619545
:1039400071096770772701C0B6946A95EAF7BD2AB6
:103950006081962E9B289082A39468E0A612DECF09
:10396000019631968830910579F6CA16DB0609F082
:10397000BCCF04E610E020E230E047E953E060E429
:1039800088E70E942C33892B09F003CFE101C09511
:10399000D0958091AC049091AD04C823D923D093E5
:1039A000AD04C093AC04F5CE8295880F80768093E9
:1039B00077019801369527953695279520937A01BA
:1039C000815E8093780120937B0166CF42555B4FE7
:1039D00004E610E020E230E0D2CFAEE1B0E0E3EF69
:1039E000FCE10C9436354091D8025091D902609197
:1039F000DA027091DB028091DC029091DD020E947C
:103A000030182093D8023093D9024093DA025093B1
:103A1000DB026093DC027093DD0286E0E8EDF2E009
:103A2000DE01179601900D928A95E1F786E0FE017E
:103A30003796DE011D9601900D928A95E1F786E09A
:103A4000FE013D96DE01119601900D928A95E1F7F7
:103A500086E0FE013196A8EDB2E001900D928A95C4
:103A6000E1F786E0E8EDF2E0DE01599601900D9273
:103A70008A95E1F786E0FE017996DE0117960190BE
:103A80000D928A95E1F786E0FE013796DE011196E8
:103A900001900D928A95E1F786E0FE013196DE01F4
:103AA000539601900D928A95E1F786E0FE01739698
:103AB000DE01179601900D928A95E1F786E0FE01EE
:103AC0003796A8EDB2E001900D928A95E1F786E075
:103AD000E8EDF2E0DE01179601900D928A95E1F78C
:103AE00080916901882309F445C080916E0190910D
:103AF0006F010E94B31A20916D0128171906D0F5A5
:103B000080917001909171010E94B31A893C9105D6
:103B100088F189859A85892B9B85892B9C85892BA2
:103B20009885892B91E009F490E0909372010E94AE
:103B3000AE0710919603882351F10E94C21A909308
:103B40006F0180936E01109271011092700180914B
:103B50006A01111105C0882369F00E94E7090AC0B3
:103B6000212F30E0082E02C0359527950A94E2F700
:103B700020FFF3CF0E94FA0A81112FC08091D70253
:103B80001092D70281706E96E3E00C9452358091CA
:103B90006A01111118C08111EDCF80916E019091D1
:103BA0006F010E94B31A20916B0130916C012817AC
:103BB000390700F780916A010E94C30910926F01D2
:103BC00010926E01D7CF212F30E002C03595279596
:103BD0008A95E2F720FFCECFE0CF81E090E0D0CF12
:103BE000A3E1B0E0E6EFFDE10C942C358E01045F1B
:103BF0001F4F88E0D8011D928A95E9F789EBC82EFE
:103C000081E0D82EF12CE12CAA24A394B12C23EC32
:103C1000822E21E0922EF60181916F018F3F09F4EF
:103C200042C0F894E82FE295EF70F0E021A18F7088
:103C3000A50102C0440F551F8A95E2F7CA01922FD1
:103C4000982B91A392A18095892382A3789400C098
:103C5000EDEBF1E0712C31E021912F3F09F46BC0C5
:103C6000A22FA295AF70B0E090968C9190E02F704B
:103C700002C0959587952A95E2F780FD5CC0832F59
:103C8000782A330F8E169F0639F7F6013197808117
:103C90008F3F11F00E940A0850EA5A95F1F7F80197
:103CA000EE0DFF1D70828FEFE81AF80AA4E0EA1605
:103CB000F10409F0B0CF48E050E0B80187EA92E0A3
:103CC0000E94D835009741F028E0F801A7EAB2E059
:103CD00001900D922A95E1F70091B002892B69F1CC
:103CE00081E080932C020E94C21A90932B02809351
:103CF0002A0280912A0290912B020E94B31A059702
:103D000000F110E002541D4F44E050E067EA72E019
:103D1000C8010E94D835B12C892B51F084E0E7EA24
:103D2000F2E0D80101900D928A95E1F7BB24B3949B
:103D300010922C0207C080E0A3CF80912C02811149
:103D4000D8CFB12C0E94C910A82EE091B0028823D0
:103D500009F489C019821A821B821C820E2F10E07E
:103D600002541D4F8091A2028A3008F046C04FE4F1
:103D700056E1BE016F5F7F4FC8010E9496108823F5
:103D800009F460C044E056E1BE016F5F7F4FC80197
:103D90000E949610882309F455C04FE357E1BE01F5
:103DA0006F5F7F4FC8010E949610882309F44AC0B4
:103DB00040E257E1BE016F5F7F4FC8010E9496103D
:103DC000882309F43FC01092A2028091AF0290E0D4
:103DD00044E050E0BE016F5F7F4F82549D4F0E94D0
:103DE000D83521E020933302892BF1F4A12C8A2DC0
:103DF0008B296396EDE00C94483580912D029091CB
:103E00002E020E94B31A843F914008F0B0CF8091F7
:103E10003302882359F384E0FE013196DF011D92BD
:103E20008A95E9F710923302E091AF02F0E0E25494
:103E3000FD4F89819A81AB81BC8180839183A2836C
:103E4000B383D5CF8091A2028F3F31F08F5F8093F3
:103E5000A2028A3008F4B9CF0E94C21A90932E02AF
:103E600080932D02D4CFF0E0E254FD4F84E0A6E32E
:103E7000B2E001900D928A95E1F764E070E086E38C
:103E800092E00E94CF0680933502C0903A02D09013
:103E90003B02E0903C02F0903D0280912F02909115
:103EA0003002A0913102B0913202C816D906EA065A
:103EB000FB06D1F0C0922F02D0923002E092310284
:103EC000F09232020E94C91081110EC00E94800639
:103ED000C61AD70AE80AF90AC092A302D092A4022D
:103EE000E092A502F092A6028BE0EEE3F2E0DE01A2
:103EF000119601900D928A95E1F79981892F869507
:103F00000A81FB80EC801B85109248021123A1F0EE
:103F100010FF0AC090FF17C09091A3049160909386
:103F2000A30460E00E94CC1411FF06C020E04E2DD7
:103F30006F2D802F0E94B11380914902882331F0A8
:103F40000E94631354CF0E948910EECF0E94481341
:103F50004ECFA8E0B0E0EFEAFFE10C9429358C01E8
:103F6000DC0114968C91882309F4B2C061E0C80189
:103F70000E94CC127C01F801D580DD2009F469C1D2
:103F800097578038910508F064C1FFE0FE1508F4EA
:103F90008FC08FEF93E00E94EE35811189C0E9E672
:103FA000AE2EE2E0BE2EE1104DC0FE01339686E05B
:103FB000DF011D928A95E9F77AE0472E7501BFEF80
:103FC000EB1AFB0AC5010E94EE3589831A82882309
:103FD00009F46EC0813009F07FC06501E2E0CE0EC9
:103FE000D11CC7010E94EE358A83882309F460C082
:103FF0009FEF980F9330A0F5F3E0AF0EB11CC60110
:104000000E94EE358B83882309F452C01C82DE01A6
:1040100011967D01F7012081222381F2213009F0E0
:10402000BAC091818281913009F058C0F2E0EF0E60
:10403000F11C65E070E0893311F460E570E00E94E6
:104040005E1153C0A11424E0B20691F1C5010E9493
:10405000EE35811101C0EA943FEFA31AB30AA3CF52
:1040600056018430A1F662E0E62EF12C56012FEFC6
:10407000A21AB20AC6010E94EE35E1E0F0E0EC0FB0
:10408000FD1FEE0DFF1D8083882391F08C3741F4D6
:10409000E2E0F0E0EC0FFD1FEE0DFF1D1082B7CF48
:1040A0003FEFE31AF30A650187E0E816F104F1F641
:1040B0008091DE02877061F0D80115968C9188237B
:1040C00039F08091B20282FF03C082E00E94D009E1
:1040D0002896E0E10C944535570199CF923039F597
:1040E00022E0E20EF11C0E94760FFFEFEF1AFF0AAA
:1040F0008FE99FE00197F1F700C00000AFE9BFE052
:104100001197F1F700C00000EFE9FFE03197F1F7F8
:1041100000C000008FE99FE00197F1F700C00000A8
:10412000AFE9BFE01197F1F700C0000073CF933003
:1041300031F432E0E30EF11C0E944A0FD6CF9430E6
:1041400021F08FEFE81AF80AD0CF92E0E90EF11CC7
:1041500030E020E0B7016F5F7F4FD70111964C919F
:104160008053990B8A30910558F02150310908F499
:10417000BCCFEFE9FFE03197F1F700C00000F5CFC9
:10418000429EF001439EF00D11249C012E0F3F1F13
:10419000842F7B01DFCFE22FF0E0E956FE4F5490F1
:1041A000822F86958695869590E0FC01E957FE4F13
:1041B00064902770712C022E02C0759467940A9443
:1041C000E2F731E063227724FC01E958FE4F849046
:1041D000912C022E02C0959487940A94E2F7A1E0F4
:1041E0008A229924FC01E959FE4FC490D12C02C0C7
:1041F000D594C7942A95E2F7B1E0CB22DD2461146F
:10420000710419F081EE0E94760F8114910419F067
:1042100086EE0E94760FE9E365E070E05E1202C070
:1042200060E570E0852D0E945E118114910419F003
:1042300086EE0E944A0F6114710419F081EE0E940B
:104240004A0FC114D10409F450CF65E070E08CE24C
:10425000F6CE80916901882309F46FC0B0E2EB16B5
:10426000B2E5FB0608F052C0E114E2E5FE0608F0F4
:10427000B7C0E114F0E4FF06E0F5E11420E2F20635
:1042800008F0DAC030EEE316F10450F088EEE816DC
:10429000F10408F44DC0E11491E0F90608F048C0BB
:1042A000F8018481882309F443C0F7E0EF16FEE7A4
:1042B000FF0609F4ACC0C7018D5C9109439708F46F
:1042C000A6C00E94AE07811133C0DD2059F0809155
:1042D0006A01209196032111B6C0882309F4BCC05D
:1042E0000E94D40A0E94C21A9093710180937001B7
:1042F0001FC0E114A0E5FA0608F08DC0F801868120
:10430000807F09F099C08F2D99278BC0B0E8EB16FC
:10431000B2E5FB0608F03BC0E0E6EE16E2E5FE067D
:1043200008F05EC0F0E4EF16F2E5FF0608F466C0A0
:104330008091740187FD10927401F092A601E092C1
:10434000A501D8018D919C9111979093A80180931C
:10435000A701F7013497E533F10508F086C0E95E5F
:10436000FD4FE49115968C9120EB811102C02E2F08
:10437000E0EBAFEAB1E090E080E03D9132136FC036
:104380008F569E4FDC015E96EC93F70175C020ECD2
:10439000E21622E5F20660F230EEE31632E5F306AD
:1043A00008F07ECF20916A01C7018F7199272817E5
:1043B000190609F0BDCF8D2D0E949707D8011696DA
:1043C0008C911697807F803509F0B2CF15968C912D
:1043D000882361F180917401815080937401A8CF8A
:1043E00020916A01C7018F7199272817190609F0D2
:1043F0009FCFD1109DCF0E94A5079ACF20916A012F
:10440000C7018F7199272817190609F091CF8D2DB3
:104410000E9497078DCFC70155E0969587955A95CD
:10442000E1F78F70992720916A01EDCF0E94A507CF
:10443000809174018F5FD1CFD80116968C91807FC7
:1044400009F476CF2DCF30E0082E02C035952795A0
:104450000A94E2F720FF44CF0E94C30941CF01969E
:104460008630910509F089CF90CFC7019A95F70161
:1044700081159F4108F4FF27D80115968C91E13DE5
:10448000F10538F0E93DF10570F0E730BEE7FB07D4
:1044900009F1882361F0FE57E031F10540F4EE5A4E
:1044A000F94C0C948C35682F8E2F0E94530BD80139
:1044B00015968C91811180C3809142048272F7011C
:1044C000E052F847E531F10508F0E9C0EE59F94C42
:1044D0000C948C350E948009EACF80E00E9402187B
:1044E0001092A30180E00E94F10A8AE892E00E9403
:1044F000E30ADECD40919C012091A30120FB47F906
:10450000269523708091690180FB22F980916B01CF
:1045100090916C0162E370E00E9413355FEF560FDB
:10452000550F550F550F522B6091A401637070E029
:104530008FE090E00E942436BBCD81E00E941C18E1
:10454000B7CD8FEFFBCF8AE0F9CF86EFF7CF909111
:104550009E0181E089270E948009AACD8091A30154
:10456000811101C084E08F5F18160CF081E0883063
:1045700008F087E08093A3019BCD8091A301811176
:1045800001C084E08150F0CF81E08093A40190CD00
:104590001092A4018DCD82E0F8CF9091690181E065
:1045A00089270E94F10A84CD80916B0190916C0162
:1045B000C296893EE3E09E0708F499CF88EE93E027
:1045C00096CF80916B0190916C01C29784369105D2
:1045D00008F08DCF84E690E08ACF8091A30480FF1D
:1045E0001CC0282F2E7F2093A3043091A404409157
:1045F000A5045091A6046091A7047091A80480912D
:10460000A9049091AA040E948B138091E102816019
:104610008093E1020E943E104BCD81608093A30401
:1046200061E086950E94CC1443CD40E055E16AE0FC
:1046300075E10E94E5063CCD4AE055E160E075E198
:10464000F8CF44E854E16EE874E1F3CF4EE854E16A
:1046500064E874E1EECF4AE654E167E774E1E9CF3C
:1046600047E754E16AE674E1E4CF40E554E16DE5E3
:1046700074E1DFCF4DE554E160E574E1DACF48E95C
:1046800054E162EB74E1D5CF42EB54E168E974E1A7
:10469000D0CF61E081E0C6CF0E94151509CDB7E704
:1046A000EB16BCE7FB0609F44FC0E8E7EE16ECE7B3
:1046B000FE0609F44DC0F80187819085009709F442
:1046C0008FC00E9421087C01F801A58096809294F9
:1046D0003FE093228091DE028770F1F0CA2CAA207D
:1046E000E1F08F2D807F803451F080E28E0D883094
:1046F00098F0911004C08F2D807E803269F08091F7
:10470000B20282FF09C082E00E94D0098091DE02DD
:104710008770CC24C3948111C12CBF2CB2942FE09C
:10472000B222FBE0FB1508F4D5C0EB2DF0E0E95810
:10473000F94C0C948C3581E00E94E70943E062E07B
:1047400081E00E94A309B4CC81E00E94C309F6CFA6
:1047500082E0FBCFF3E0EF16FCE7FF0671F160F4B7
:10476000E1143CE7F306D1F081E0E8168CE7F806A7
:1047700009F0A1CF0E9474119BE5E9169CE7F906A8
:1047800069F1ACE5EA16ACE7FA06F1F0BAE5EB162A
:10479000BCE7FB0609F08FCF81E01DC010924204F8
:1047A0000E946D0CEFEFF4E32CE0E150F04020406C
:1047B000E1F700C000000E946F066FEF7FEF90E00E
:1047C00080E00E943036D6CF8091B20282FB8827EB
:1047D00080F991E089270E9443156DCF80E0FBCFDF
:1047E0008581E080F180882369F0C7010E9466120C
:1047F000D82E682FC7010E943509B7018D2D0E9460
:1048000058125FCFC7010E940109D82EF6CF2F2D75
:104810002F70D22E8F2D807F19F0D29490EFD92255
:10482000AA20B9F0DD2069F080E28E0D883010F00A
:10483000E11009C080914204D82AD09242040E941B
:10484000300C8E2D45C08091C303D82AD092C3036B
:10485000F6CF8E2D0E944A0FDD20E1F180E28E0D11
:10486000883010F0E11004C08D2D0E94F00806C0C1
:10487000D0948091C303D822D092C3030E94300CFD
:1048800029C03F2D3F70D32E8F2D807F803219F0AD
:10489000D29480EFD822EE2059F081E0E81609F496
:1048A00071C0AA2009F47DC0992009F440C0C9CF85
:1048B0008091B20282FD37C0AA2079F1DD2039F063
:1048C00080914204D82AD09242040E94300C80E0A9
:1048D0000E94760FAB2DA850BB0B149710F40E94CA
:1048E000EE10CC20A9F08091DE0280FD11C0F8010D
:1048F00015828695869586950E94E709C8010E94D3
:10490000A91F8091DE028695869586950E94C3092F
:1049100060E0C8010E94CC12DBCB80E00E944A0F0D
:10492000DD20C1F2A1CFAA2099F0911004C08D2DF5
:104930000E94400FCFCF91E09912CCCF80912602F8
:104940009D2D9823D91631F2D82AD0922602C2CFB3
:104950009110C0CF8D2D0E94390F909126028D2D80
:10496000892329F08D2D80958923809326028091BB
:1049700002029D2D982309F4ADCFD094D822D09275
:104980000202A8CFAA2029F0A5E0A91508F4A2CF19
:10499000CECFB4E0B91508F49DCF8D2D0E94390F0C
:1049A00099CF9920D1F3E9E3EE1201C1FFEF27EE91
:1049B00033E0F15020403040E1F700C000008E2D80
:1049C0000E944A0F87CF6A2D8E2D0E94530B82CFF3
:1049D0008F2D837091F5A1107DCF4E2D4295469578
:1049E0004770440F440F8E2D8F70042E01C0880F26
:1049F0000A94EAF72E2D2071E4FE07C02FE030E084
:104A000001C0220F4A95EAF720953F2D369536953D
:104A10003370323069F050F440912702313029F080
:104A2000822B84230E946C0955CF842B822BFACFD2
:104A3000282B809127028227F5CF8695AA2011F096
:104A40008F2D8170882309F445CF4E2D42954695D0
:104A50004770440F440F8E2D8F70042E01C0880FB5
:104A60000A94EAF72E2D2071E4FE07C02FE030E013
:104A700001C0220F4A95EAF720953F2D36953695CD
:104A80003370323069F050F440919603313029F0A0
:104A9000822B84230E9494091DCF842B822BFACF72
:104AA000282B809196038227F5CF9F2D9F70F92E9A
:104AB000AA2029F0892F0E94E7098E2D39CF8E2D4B
:104AC0000E94390F8F2D0E94C30904CFA2EFEA166E
:104AD000B1F1AE1570F0B0EFEB16D1F0E1EFEE16DC
:104AE00091F0AA2009F45EC09110ABCE8F2D8F718A
:104AF0002AC0F3EFEF1651F124EFE212F2CF8091CA
:104B0000B20282FD2FC08F2D8F71AA20E1F21BC04F
:104B1000AA2081F034E0391508F4DCCE2F2D2F7156
:104B200081E090E001C0880F2A95EAF79091960302
:104B30008927B0CF85E0891508F4CCCEEFCF8F2D33
:104B40008F71A110C0CF0E94E709C4CE80E0AA20D7
:104B500009F4A0CF9F2D9F7181E001C0880F9A9525
:104B6000EAF798CFAA2099F09F2D9F71F92E892FEF
:104B70000E94E7098091B20282FF07C0A8E0FA9E76
:104B8000C001112483608093DE028F2DDCCF81E091
:104B90000E94D009B1E0B91508F09CCE82E00E94D5
:104BA000D00998CE9110FFCE8F2D8F718CCF8FE1D1
:104BB0009EE40197F1F701CFF7E7EF16FCE7FF0658
:104BC00009F4B9CD28E7E2162CE7F20609F0C2CDC8
:104BD00082E0B2CDCF93DF9380911B02807F09F0FA
:104BE0004DC080911A02882309F448C0E091A204C4
:104BF00050915904C0911602D0911502609117028C
:104C00007091180249E05E17C9F18E2F90E0E49F81
:104C1000F0011124E65AFB4F2481222391F1489F91
:104C2000F001499FF00D1124DF01A65ABB4F1196E8
:104C30002C9111972C1325C02C912D1322C0159661
:104C40002C91159721111DC012962D913C91261B78
:104C5000370B283C3105A8F480911B028F708061CE
:104C600080931B02E05AFB4F80818F7080618083AC
:104C700085E192E00E94A91F0E94F708DF91CF9181
:104C80000895FC013196E770BECFA8E1B0E0EBE4F7
:104C9000F6E20C942D358C0186E0F801DE01539686
:104CA00001900D928A95E1F7F8018481E58095E104
:104CB000A92E92E0B92E90911902911128C0882353
:104CC00019F1EE20F1F0C8010E94A212F82E8823FB
:104CD000C1F089E0F801D50101900D928A95E1F7C4
:104CE00080911902813031F4809115029091160261
:104CF0000E9495120E94EA258F2D6896ECE00C9494
:104D00004935C8010E94A91FFF24F394F5CFD08034
:104D1000C18082809380F0901A0220911702309116
:104D20001802A401421B530BFF2009F40DC1483C9B
:104D3000510508F0B6C08823F9F2909116028091CF
:104D40001B02282F207F09F05FC0C9121DC090915F
:104D50001502D91219C040911C0250911D022781E1
:104D600030854217530781F4E11048C08F7080618D
:104D700080931B0285E192E00E94A91F80911B0293
:104D8000F8018683F12CB8CFE11038C06C2D8D2D41
:104D90000E94F2046C2D8D2D0E94F204E82E8111E8
:104DA000F1CFDB8ACC8A8B899C890E949512292FAE
:104DB00022952F70243058F49F70223088F0992368
:104DC00099F0F8019681907F79F4FE2C95CF2A5FB7
:104DD0002F70223068F0C8010E94A91FEF2CF5CF78
:104DE000992311F0882389F3805E883070F3F3CF24
:104DF000803F58F3815F833070F7E7CF80911B02CB
:104E0000816080931B02BECFC9121CC09091150215
:104E1000D91218C040911C0250911D022781308583
:104E20004217530779F4E1100DC08683C8010E9430
:104E3000A91F89E0F801A5E1B2E001900D928A95E1
:104E4000E1F75ACFC8010E94A212882309F459CF72
:104E5000EE2009F456CF80911B028032B8F02091E9
:104E60001502309116023B872A879D868C86909189
:104E700019029E871F86888B80911C0290911D02CB
:104E80009A8B898BCE010A960E94A91F89E0F801AE
:104E9000A5E1B2E001900D928A95E1F70E94EA2522
:104EA00033CF90911B02292F207F51F485E192E0AE
:104EB0000E94A91F89E0F50111928A95E9F762CF56
:104EC000882309F419CF809116028C1119C08091A2
:104ED0001502D81215C040911C0250911D02278165
:104EE00030854217530761F4E1100AC09683C80168
:104EF0000E94A91F89E0F50111928A95E9F7FCCE7D
:104F0000C8010E94A212882309F4FBCEEE2009F406
:104F1000F8CE80911B02803208F4B8CF20911502A0
:104F2000309116023A8329839C828B8290911902D8
:104F30009D831E828F8380911C0290911D02998710
:104F40008887CE010196A0CF483C510598F688236A
:104F500009F4DACEFE2CEE2009F4D3CE80911602AD
:104F60008C1120C080911502D8121CC020911C0207
:104F700030911D02878190852817390799F4909107
:104F80001B0290FD56CF907F09F453CF80911B02F6
:104F90008683903F09F44ACF982F907F905F8F705F
:104FA000892B43CFC8010E94A21281116FCF80913B
:104FB0001B02816080931B02C8010E94A91F9CCE26
:104FC000A2E1B0E0E6EEF7E20C9435350A871B87E4
:104FD0002C873D874E875F87688B798B8A8BCE01C4
:104FE0000A960E94452681110CC089E0FE013A967E
:104FF000DE01119601900D928A95E1F78E8581115F
:105000000BC019E08091A20490915904891333C018
:105010006296E4E00C9451352091590430E0C901C6
:105020000196877099274091A2044817190699F0B4
:1050300099E0929FD001939FB00D1124A65ABB4FC7
:10504000FE01319601900D929A95E1F780935904F3
:105050000E94F708D6CF109242040E946D0C109265
:1050600059041092A20489E0E5E1F2E0DF011D920B
:105070008A95E9F7C6CF819FC0011124865A9B4FBC
:105080000E944526882321F28091A20490E0019697
:10509000877099278093A204B5CFB0E0A0E0E3E544
:1050A000F8E20C9430358091C503882369F0C091F3
:1050B000C403C12C8DE0D82E8091C503C81748F0D9
:1050C0001092C5031092C403CDB7DEB7E9E00C948B
:1050D0004C35BB24B394BC0EB092C403EC2EF12C1F
:1050E000CD9DE0011124CA53DC4F8C81882361F1EE
:1050F0008F819885892B21F489859A85019659F4A9
:10510000088119812A813B814C815D816E817F817B
:1051100088850E94E027DE9CF001DF9CF00D1124C1
:10512000EA53FC4F14821092C303C1100DC0CE018C
:105130000E94A212811108C08FE19EE40197F1F74D
:1051400000C00000CC24C394CB2DB6CF10923904FC
:105150001092380410928A018091370480933604AB
:105160000E94BA060E944D280895B0E0A0E0EBEB43
:10517000F8E20C942735C0913604E7E0FE2E01E0FA
:1051800010E0FDE02F2EEE24E394809137048C1381
:1051900009C00E944D280E94BA06CDB7DEB7E2E1F1
:1051A0000C944335D0E0FE01EE0FFF1FE25DFB4F94
:1051B00080819181F89EF001F99EF00D1124E45850
:1051C000FE4F248121115AC03090C503A6ECB3E0F4
:1051D00030E020E0412C5F01231508F04DC01B9604
:1051E0006D907C901C97F501808091804FEF5FEF70
:1051F000512CC52CD12CF601EE0FFF1FE80DF91D27
:10520000659174916616770609F4A601672B11F073
:105210005394EFCF4F3F5407B9F1B80102C0660F66
:10522000771F4A95E2F7462AA801052C02C0440FD1
:10523000551F0A94E2F7415051094416150609F525
:10524000229EF001239EF00D1124EA53FC4FF89E9C
:10525000D001F99EB00D1124A458BE4F12962D9185
:105260003C9113973087278374E0748310821182F6
:10527000928781871596EC920E948C062196C370C6
:1052800084CF14961C9214972F5F3F4F1D96A4CF86
:10529000AEE1B0E0EEE4F9E20C9427354B8B5C8B89
:1052A0006D8B7E8B8F8B988F91111092C303188A10
:1052B000198A1A8A86E0FE017396DE011A96019019
:1052C0000D928A95E1F78E85882389F061E0CE0101
:1052D0000A960E94CC126C018F8520E5C2162CE73D
:1052E000D20689F4882329F181E080938A010A8516
:1052F0001B852C853D854E855F85688979898A89DE
:105300000E94E027C9C031E5C3163CE7D30629F463
:10531000882379F00E94A628EACF42E5C4164CE71C
:10532000D40639F4882329F080918A018111F2CFC3
:10533000DBCFACE7EA2EA1E0FA2E512CB12CA12C48
:1053400088248394912C17E0412ECE0101969A8FE8
:10535000898F33243394F7014081518166246A9404
:10536000762C60E0262F30E0F901EE0FFF1FE40FEE
:10537000F51F85919491C816D90609F43901892B36
:1053800031F06F5FEFCFAA24A394B12CE4CF10E0EB
:10539000FFEF6F167F0609F443C0F70144811091B7
:1053A0008A01812F411180E0182F1170F7012580AB
:1053B00086819F85992309F4EFC0112309F4ECC07D
:1053C000211014C09401062C01C0220F0A94EAF7A0
:1053D000822B86838091C1039091C203C29730F4DF
:1053E00022E330E03093C2032093C103C40102C022
:1053F000880F991F6A95E2F70197F7012681281710
:10540000190671F48091380490913904009709F4D9
:1054100047C00E94B31AC39708F442C0F701348210
:10542000512AF7E0EF0EF11C21E0A216B10409F0B9
:10543000AACF8F85882309F40EC1552009F40BC12A
:105440000E94C21A90933904809338048091C50356
:10545000883010F591E0980F9093C50399E0FE0114
:105460003A96DE01119601900D929A95E1F73DE092
:10547000839FC00111248A539C4F29E0FE0131967D
:10548000DC0101900D922A95E1F72FEF3FEFFC012F
:1054900032872187D486C3866E96E2E10C94433529
:1054A0008091360460913704982FF0E0E0E0861395
:1054B00014C090933604EE16FF0609F4B1CF90E0C5
:1054C000FC01EE0FFF1FE25DFB4FB182A08201964F
:1054D0008370992780933704A3CF682E712CF30132
:1054E000EE0FFF1FE25DFB4F20813181429ED00114
:1054F000439EB00D1124A458BE4F2D913C9111979D
:105500003E8F2D8F00E070E0212CE22DF0E0EE0FB9
:10551000FF1F2D8D3E8DE20FF31F25913491211534
:105520003105E1F0F7010190F081E02DFC8FEB8F68
:1055300070E005C02417350709F4012F7F5FE72FBE
:10554000F0E0EE0FFF1F4B8D5C8DE40FF51F4591D2
:1055500054914115510571F72394D7CF0023C9F019
:10556000F701721508F0FD013482EE16FF0621F4F2
:1055700090933604102F54CF891305C0AE17BF0780
:1055800011F49F5F937093012F5F3F4F822F8370C1
:105590008ECFF0E0E0E0F7CF90E021101FC0940143
:1055A00002C0220F331F6A95E2F7215031092817F4
:1055B000390731F4442309F44CC0C5010E948C061C
:1055C000C401062C01C0880F0A94EAF7982F909521
:1055D000F701868189238683122D22CFAC01062C08
:1055E00002C0559547950A94E2F7BA016170772792
:1055F0009C012150310982239323892B31F5672B9C
:1056000021F1F70182819381892BE1F0E98DFA8DF7
:10561000242D11922A95E9F70E94C21A282F8B8314
:105620009C8334E03D83F70182819381782F8887C2
:10563000998709811A813C8144E05E816F81892FBD
:105640000E94E027F7011582BBCFF42FF1702F2EB7
:10565000B7CF212EB5CF909136048091370498179B
:1056600029F00E94B528511017CF41CE0E944D2835
:1056700010923904109238040E94BA06F4CFA6E0C2
:10568000B0E0E5E4FBE20C9435350E94C21A8C01CF
:1056900080912802909129028017910781F0198248
:1056A0001A820E94C21A682F49815A81792F80E09C
:1056B00090E00E9448291093290200932802269620
:1056C000E4E00C9451351F921FB61F9211248F9362
:1056D0009F93AF93BF9380913C04811113C080913D
:1056E0003D0490913E04A0913F04B0914004419646
:1056F000A11DB11D80933D0490933E04A0933F04EF
:10570000B0934004BF91AF919F918F911F901FBEA6
:105710001F901895CDB7DEB7A6970FB6F894DEBFE9
:105720000FBECDBF85B7806885BF85B7806885BF50
:1057300084B7877F84BF0FB6F894A89580916000E6
:10574000886180936000109260000FBE80E890E056
:105750000FB6F89480936100909361000FBE8CEDBA
:1057600097E09093EF018093EE010E9411050E9453
:10577000B2058091E20084608093E2007894809189
:105780004F048823A1F01091E9001F709091EC0064
:10579000892F817090FD80E8182B1092E90080918C
:1057A000E80083FD0E94790C1F701093E90082E0ED
:1057B00084BD93E095BD9AEF97BD80936E001092E3
:1057C000A3021092A4021092A5021092A6020E94B7
:1057D0000513811102C00E9419120E9419118093B1
:1057E000000180910001882309F468C010928C01A7
:1057F0008EE180938D010E94C91081110E94B13306
:10580000809100018091000194E0811190E09093DB
:10581000B00284E0891B8093AF0284EF0E940A08E3
:1058200085EF0E940A0886EF0E940A0887EF0E940F
:105830000A080DEB11E0D8018D918D018F3F11F019
:105840000E940A08B1E0033C1B07A9F788E0EEEBD1
:10585000F2E0DF01882E1D928A94E9F7E7EAF2E090
:10586000DF011D928A95E9F70E945A15811102C045
:105870000E946D1782E090E00E94EE358093B402A2
:1058800084E090E00E94FC359093B2028093B102D4
:105890000E94F01DEFE3FCE93197F1F700C0000032
:1058A0000E94F01D8091BE0280FF0CC06FEF7FEF61
:1058B00090E080E00E9430360E946F068EE1809377
:1058C0008C0197CF83E090E00E94EE350E946C0936
:1058D000809196030E946F0991E0833009F090E077
:1058E000892F0E9480090E94C910882309F4A6C14B
:1058F00080E08093B70380E88093AB040E946B3212
:105900006BE070E083E692E00E941E138823E9F1C9
:105910008091B70365E070E081FD92C18EE592E071
:105920000E941E13882389F16DE070E08CE492E000
:105930000E941E13882349F10E948006605A754117
:105940008F4F9F4F6093B9037093BA038093BB034B
:105950009093BC03EEEAF4E080E092E0DF019C016A
:105960001D9221503040E1F7F093B506E093B40664
:105970008FEF9FEF9093AD048093AC0481E0809310
:10598000C0038093BD031092B8038091B3028111CC
:1059900076C00E945A15811104C00E946D170E94A2
:1059A000261588E090E00E94F6354B015C0184E208
:1059B00090E00E94EE35282F30E040E050E060E0BB
:1059C00070E080E090E000E20E94993528293929B2
:1059D0004A295B292093A3043093A4044093A5048F
:1059E0005093A6046093A7047093A8048093A9041D
:1059F0009093AA048091E10283608093E1022E7F5C
:105A000089F50E94261588E090E00E94F6356B012A
:105A10007C0184E290E00E94EE35282F30E040E0E7
:105A200050E060E070E080E090E00E949935B22F95
:105A3000A32FF42FE52F5B0197018601BC29A12B31
:105A4000FE29E32BB093A304A093A404F093A50430
:105A5000E093A6046093A704B092A8048093A904DD
:105A60009093AA040E94EB068091A30480FF04C0D7
:105A700060E086950E94CC1481E08093B3020E947E
:105A8000C910811102C00E94B4330E942F190E94D4
:105A9000C91081112EC087E591E190935001809348
:105AA0004F0129E130E030934B0120934A0189E313
:105AB00090E090934E0180934D0148EC57E0509355
:105AC0005801409357013093530120935201909312
:105AD00056018093550147E158E15093600140938E
